{
    "_format": "hh-sol-artifact-1",
    "contractName": "ReverseDutchAuctionSwap",
    "sourceName": "contracts/swap.sol",
    "abi": [
        {
            "inputs": [],
            "name": "AuctionAlreadyEnded",
            "type": "error"
        },
        {
            "inputs": [],
            "name": "AuctionNotActive",
            "type": "error"
        },
        {
            "inputs": [],
            "name": "InvalidAuctionParameters",
            "type": "error"
        },
        {
            "inputs": [],
            "name": "PriceTooLow",
            "type": "error"
        },
        {
            "inputs": [],
            "name": "ReentrancyGuardReentrantCall",
            "type": "error"
        },
        {
            "inputs": [],
            "name": "TransferFailed",
            "type": "error"
        },
        {
            "anonymous": false,
            "inputs": [
                {
                    "indexed": true,
                    "internalType": "address",
                    "name": "seller",
                    "type": "address"
                },
                {
                    "indexed": false,
                    "internalType": "address",
                    "name": "tokenSell",
                    "type": "address"
                },
                {
                    "indexed": false,
                    "internalType": "address",
                    "name": "tokenBuy",
                    "type": "address"
                },
                {
                    "indexed": false,
                    "internalType": "uint256",
                    "name": "amountSell",
                    "type": "uint256"
                },
                {
                    "indexed": false,
                    "internalType": "uint256",
                    "name": "initialPrice",
                    "type": "uint256"
                },
                {
                    "indexed": false,
                    "internalType": "uint256",
                    "name": "minPrice",
                    "type": "uint256"
                },
                {
                    "indexed": false,
                    "internalType": "uint256",
                    "name": "duration",
                    "type": "uint256"
                }
            ],
            "name": "AuctionCreated",
            "type": "event"
        },
        {
            "anonymous": false,
            "inputs": [
                {
                    "indexed": true,
                    "internalType": "address",
                    "name": "buyer",
                    "type": "address"
                },
                {
                    "indexed": false,
                    "internalType": "uint256",
                    "name": "finalPrice",
                    "type": "uint256"
                }
            ],
            "name": "AuctionFinalized",
            "type": "event"
        },
        {
            "inputs": [],
            "name": "auction",
            "outputs": [
                {
                    "internalType": "address",
                    "name": "seller",
                    "type": "address"
                },
                {
                    "internalType": "address",
                    "name": "tokenSell",
                    "type": "address"
                },
                {
                    "internalType": "address",
                    "name": "tokenBuy",
                    "type": "address"
                },
                {
                    "internalType": "uint256",
                    "name": "amountSell",
                    "type": "uint256"
                },
                {
                    "internalType": "uint256",
                    "name": "initialPrice",
                    "type": "uint256"
                },
                {
                    "internalType": "uint256",
                    "name": "minPrice",
                    "type": "uint256"
                },
                {
                    "internalType": "uint256",
                    "name": "duration",
                    "type": "uint256"
                },
                {
                    "internalType": "uint256",
                    "name": "startTime",
                    "type": "uint256"
                },
                {
                    "internalType": "uint256",
                    "name": "priceDropPerSecond",
                    "type": "uint256"
                },
                {
                    "internalType": "bool",
                    "name": "active",
                    "type": "bool"
                }
            ],
            "stateMutability": "view",
            "type": "function"
        },
        {
            "inputs": [],
            "name": "buy",
            "outputs": [],
            "stateMutability": "nonpayable",
            "type": "function"
        },
        {
            "inputs": [
                {
                    "internalType": "address",
                    "name": "_tokenSell",
                    "type": "address"
                },
                {
                    "internalType": "address",
                    "name": "_tokenBuy",
                    "type": "address"
                },
                {
                    "internalType": "uint256",
                    "name": "_amountSell",
                    "type": "uint256"
                },
                {
                    "internalType": "uint256",
                    "name": "_initialPrice",
                    "type": "uint256"
                },
                {
                    "internalType": "uint256",
                    "name": "_minPrice",
                    "type": "uint256"
                },
                {
                    "internalType": "uint256",
                    "name": "_duration",
                    "type": "uint256"
                }
            ],
            "name": "createAuction",
            "outputs": [],
            "stateMutability": "nonpayable",
            "type": "function"
        },
        {
            "inputs": [],
            "name": "getCurrentPrice",
            "outputs": [
                {
                    "internalType": "uint256",
                    "name": "",
                    "type": "uint256"
                }
            ],
            "stateMutability": "view",
            "type": "function"
        }
    ],
    "bytecode": "0x6080604052348015600f57600080fd5b506001600081905550610cf9806100276000396000f3fe608060405234801561001057600080fd5b506004361061004c5760003560e01c806312b3d2c1146100515780637d9f6db51461006d578063a6f2ae3a14610094578063eb91d37e1461009e575b600080fd5b61006b600480360381019061006691906108f3565b6100bc565b005b6100756103c7565b60405161008b9a999897969594939291906109b9565b60405180910390f35b61009c610476565b005b6100a6610768565b6040516100b39190610a55565b60405180910390f35b60008414806100cb5750818311155b806100d65750600081145b1561010d576040517fe8d79b0600000000000000000000000000000000000000000000000000000000815260040160405180910390fd5b8573ffffffffffffffffffffffffffffffffffffffff166323b872dd3330876040518463ffffffff1660e01b815260040161014a93929190610a70565b6020604051808303816000875af1158015610169573d6000803e3d6000fd5b505050506040513d601f19601f8201168201806040525081019061018d9190610ad3565b506040518061014001604052803373ffffffffffffffffffffffffffffffffffffffff1681526020018773ffffffffffffffffffffffffffffffffffffffff1681526020018673ffffffffffffffffffffffffffffffffffffffff1681526020018581526020018481526020018381526020018281526020014281526020018284866102199190610b2f565b6102239190610b92565b815260200160011515815250600160008201518160000160006101000a81548173ffffffffffffffffffffffffffffffffffffffff021916908373ffffffffffffffffffffffffffffffffffffffff16021790555060208201518160010160006101000a81548173ffffffffffffffffffffffffffffffffffffffff021916908373ffffffffffffffffffffffffffffffffffffffff16021790555060408201518160020160006101000a81548173ffffffffffffffffffffffffffffffffffffffff021916908373ffffffffffffffffffffffffffffffffffffffff160217905550606082015181600301556080820151816004015560a0820151816005015560c0820151816006015560e0820151816007015561010082015181600801556101208201518160090160006101000a81548160ff0219169083151502179055509050503373ffffffffffffffffffffffffffffffffffffffff167f2f837c9cc862f30f7ae86a36c90097e878b618728671023eb43e3f0ed08c2ce78787878787876040516103b796959493929190610bc3565b60405180910390a2505050505050565b60018060000160009054906101000a900473ffffffffffffffffffffffffffffffffffffffff16908060010160009054906101000a900473ffffffffffffffffffffffffffffffffffffffff16908060020160009054906101000a900473ffffffffffffffffffffffffffffffffffffffff16908060030154908060040154908060050154908060060154908060070154908060080154908060090160009054906101000a900460ff1690508a565b61047e61080a565b600160090160009054906101000a900460ff166104c7576040517f69b8d0fe00000000000000000000000000000000000000000000000000000000815260040160405180910390fd5b60006104d1610768565b90506001600601546001600701546104e99190610c24565b421061053f576000600160090160006101000a81548160ff0219169083151502179055506040517f69b8d0fe00000000000000000000000000000000000000000000000000000000815260040160405180910390fd5b60016005015481101561057e576040517fdbbbe82200000000000000000000000000000000000000000000000000000000815260040160405180910390fd5b6000600160090160006101000a81548160ff021916908315150217905550600160020160009054906101000a900473ffffffffffffffffffffffffffffffffffffffff1673ffffffffffffffffffffffffffffffffffffffff166323b872dd33600160000160009054906101000a900473ffffffffffffffffffffffffffffffffffffffff16846040518463ffffffff1660e01b815260040161062393929190610a70565b6020604051808303816000875af1158015610642573d6000803e3d6000fd5b505050506040513d601f19601f820116820180604052508101906106669190610ad3565b506001800160009054906101000a900473ffffffffffffffffffffffffffffffffffffffff1673ffffffffffffffffffffffffffffffffffffffff1663a9059cbb336001600301546040518363ffffffff1660e01b81526004016106cb929190610c58565b6020604051808303816000875af11580156106ea573d6000803e3d6000fd5b505050506040513d601f19601f8201168201806040525081019061070e9190610ad3565b503373ffffffffffffffffffffffffffffffffffffffff167f357afab190ee87fe0ef1c717f2728d2904d9e415a069d99f4d9382873cb3279d826040516107559190610a55565b60405180910390a250610766610850565b565b6000600160090160009054906101000a900460ff166107b3576040517f69b8d0fe00000000000000000000000000000000000000000000000000000000815260040160405180910390fd5b6000600160070154426107c69190610b2f565b905060016006015481106107e257600160050154915050610807565b600160080154816107f39190610c81565b6001600401546108039190610b2f565b9150505b90565b600260005403610846576040517f3ee5aeb500000000000000000000000000000000000000000000000000000000815260040160405180910390fd5b6002600081905550565b6001600081905550565b600080fd5b600073ffffffffffffffffffffffffffffffffffffffff82169050919050565b600061088a8261085f565b9050919050565b61089a8161087f565b81146108a557600080fd5b50565b6000813590506108b781610891565b92915050565b6000819050919050565b6108d0816108bd565b81146108db57600080fd5b50565b6000813590506108ed816108c7565b92915050565b60008060008060008060c087890312156109105761090f61085a565b5b600061091e89828a016108a8565b965050602061092f89828a016108a8565b955050604061094089828a016108de565b945050606061095189828a016108de565b935050608061096289828a016108de565b92505060a061097389828a016108de565b9150509295509295509295565b6109898161087f565b82525050565b610998816108bd565b82525050565b60008115159050919050565b6109b38161099e565b82525050565b6000610140820190506109cf600083018d610980565b6109dc602083018c610980565b6109e9604083018b610980565b6109f6606083018a61098f565b610a03608083018961098f565b610a1060a083018861098f565b610a1d60c083018761098f565b610a2a60e083018661098f565b610a3861010083018561098f565b610a466101208301846109aa565b9b9a5050505050505050505050565b6000602082019050610a6a600083018461098f565b92915050565b6000606082019050610a856000830186610980565b610a926020830185610980565b610a9f604083018461098f565b949350505050565b610ab08161099e565b8114610abb57600080fd5b50565b600081519050610acd81610aa7565b92915050565b600060208284031215610ae957610ae861085a565b5b6000610af784828501610abe565b91505092915050565b7f4e487b7100000000000000000000000000000000000000000000000000000000600052601160045260246000fd5b6000610b3a826108bd565b9150610b45836108bd565b9250828203905081811115610b5d57610b5c610b00565b5b92915050565b7f4e487b7100000000000000000000000000000000000000000000000000000000600052601260045260246000fd5b6000610b9d826108bd565b9150610ba8836108bd565b925082610bb857610bb7610b63565b5b828204905092915050565b600060c082019050610bd86000830189610980565b610be56020830188610980565b610bf2604083018761098f565b610bff606083018661098f565b610c0c608083018561098f565b610c1960a083018461098f565b979650505050505050565b6000610c2f826108bd565b9150610c3a836108bd565b9250828201905080821115610c5257610c51610b00565b5b92915050565b6000604082019050610c6d6000830185610980565b610c7a602083018461098f565b9392505050565b6000610c8c826108bd565b9150610c97836108bd565b9250828202610ca5816108bd565b91508282048414831517610cbc57610cbb610b00565b5b509291505056fea264697066735822122056110148387e6b9e0c317a63a6cd95210f86da26ec2ecb38b0c8f74c61e09ee164736f6c634300081c0033",
    "linkReferences": {},
    "deployedLinkReferences": {}
}